:020000020000FC
:0200000004C03A
:020004009DC09D
:10000800C6C00FEF0DBF08E00EBF0E94FC000E94A3
:10001800E000C0E0D1E012E01A871B8711E01C87DE
:1000280012E01D8710E01E8712E01F8711E0188379
:1000380010E0198311E01A8315E01B834A815B8164
:1000480001E00E94CE004A855B8501E00E94CE0057
:100058004C855D8501E00E94CE004E855F8501E0FC
:100068000E94CE001FEF1D834E855F8500E00E9431
:10007800CE001C851E871D851F871A851C871B853A
:100088001D871A852881120F1A871B852981120F4F
:100098001B871A852B851830F1F11F3FE1F12830B5
:1000A800D1F12F3FC1F14A855B8501E00E94CE0066
:1000B8000E9462000E9485000C9438001F932F93C1
:1000C8003F934F931A852B853A814B811317A1F4DF
:1000D800241791F41A8127E1120F17701A831B81D4
:1000E80027E1120F17701B834A815B8101E00E9490
:1000F800CE001D8114511D834F913F912F911F9167
:10010800089568E25FEF4D814A95F1F75A95D9F75E
:100118006A95C1F708950F934F935F9301E047E005
:1001280057E00E94CE005A95E4F74A95CCF75F91C4
:100138004F910F910C948F00F8941F932F933F9336
:100148004F9338814981313031F410E018831FEF23
:1001580019830C94C5003F3F31F410E0188311E077
:1001680019830C94C5004F3F31F41FEF188310E03A
:1001780019830C94C50011E0188310E019830C94BE
:10018800C5004F913F912F911F9178941895F8943D
:1001980078941895CF93DF930E9457010883DF91D5
:1001A800CF910E9421010895CF93DF930E945701B8
:1001B8000881DF91CF910895F894E89AE99A00911F
:1001C80069000F60009369005298539878940895D5
:1001D8000F934F935F9300E047E057E00E94CE00F3
:1001E8005A95E4F74A95CCF75F914F910F9108958E
:1001F800209A219A229A4F936F934BE067E00E94CE
:10020800380149E060E00E9438014CE061E00E945A
:1002180038014FE060E00E9438014AE064E00E9443
:10022800380160E041E00E94380143954930D9F730
:100238006F914F910E94EC0008954F935F936F93D5
:1002480040E060E057E0660F0F930E94D800600F0F
:100258000F915A95C4F743950E943801483089F7A1
:100268006F915F914F9108952998299A5F93542F20
:100278000E944501562F0E9445015F912998299AAD
:1002880008954F936F9360E82A98452F462340308E
:1002980019F0289A0C94510128982A9A6695A1F782
:1002A8006F914F910895C0E0D2E06F934F93440F40
:0E02B800440F440F450FC40F4F916F910895EE
:00000001FF
