:020000020000FC
:0200000004C03A
:020004003CC0FE
:1000080065C00FEF0DBF08E00EBF0E949B000E9465
:100018007F00C0E0D1E012E01A871B8711E0188347
:1000280010E019834A855B8500E00E946D001A85FF
:100038002881120F1A871B852981120F1B871A85A1
:100048002B851830B1F01F3FA1F0283091F02F3FD9
:1000580081F04A855B8501E00E946D0068E25FEFF0
:100068004FEF4A95F1F75A95D9F76A95C1F70C946D
:1000780016000C943D00F8941F932F933F936F93B1
:1000880038816981313031F410E018831FEF19830A
:100098000C9464003F3F31F410E0188311E0198399
:1000A8000C9464006F3F31F41FEF188310E019833C
:1000B8000C94640011E0188310E019830C94640018
:1000C8006F913F912F911F9178941895F894789497
:1000D8001895CF93DF930E94F6000883DF91CF91A4
:1000E8000E94C0000895CF93DF930E94F600088114
:1000F800DF91CF910895F894E89AE99A0091690000
:100108000F600093690052985398789408950F935C
:100118004F935F9300E047E057E00E946D005A95C7
:10012800E4F74A95CCF75F914F910F910895209A83
:10013800219A229A4F936F934BE067E00E94D70071
:1001480049E060E00E94D7004CE061E00E94D700DF
:100158004FE060E00E94D7004AE064E00E94D700C8
:1001680060E041E00E94D70043954930D9F76F918C
:100178004F910E948B0008954F935F936F9340E0D7
:1001880060E057E0660F0F930E947700600F0F91B1
:100198005A95C4F743950E94D700483089F76F9164
:1001A8005F914F9108952998299A5F93542F0E943F
:1001B800E400562F0E94E4005F912998299A089537
:1001C8004F936F9360E82A98452F4623403019F0E3
:1001D800289A0C94F00028982A9A6695A1F76F91AE
:1001E8004F910895C0E0D2E06F934F93440F440FAE
:0C01F800440F450FC40F4F916F91089504
:00000001FF
