:020000020000FC
:0200000004C03A
:020004008EC0AC
:10000800B7C00FEF0DBF08E00EBF0E94ED000E94C1
:10001800D100C0E0D1E012E01A871B8711E01C87ED
:1000280012E01D8710E01E8712E01F8711E0188379
:1000380010E0198311E01A8315E01B834A815B8164
:1000480001E00E94BF004A855B8501E00E94BF0075
:100058004C855D8501E00E94BF004E855F8501E00B
:100068000E94BF001FEF1D834E855F8500E00E9440
:10007800BF001C851E871D851F871A851C871B8549
:100088001D871A852881120F1A871B852981120F4F
:100098001B871A852B851830F1F11F3FE1F12830B5
:1000A800D1F12F3FC1F14A855B8501E00E94BF0075
:1000B8000E9462000E9485000C9438001F932F93C1
:1000C8003F934F931A852B853A814B811317A1F4DF
:1000D800241791F41A8127E1120F17701A831B81D4
:1000E80027E1120F17701B834A815B8101E00E9490
:1000F800BF001D8114511D834F913F912F911F9176
:10010800089562E35FEF4D814A95F1F75A95D9F763
:100118006A95C1F708950C948F00F8941F932F9354
:100128003F934F9338814981313031F410E018837F
:100138001FEF19830C94B6003F3F31F410E0188389
:1001480011E019830C94B6004F3F31F41FEF188368
:1001580010E019830C94B60011E0188310E019839D
:100168000C94B6004F913F912F911F917894189558
:10017800F89478941895CF93DF930E9448010883E8
:10018800DF91CF910E9412010895CF93DF930E94CF
:1001980048010881DF91CF910895F894E89AE99A87
:1001A800009169000F600093690052985398789401
:1001B80008950F934F935F9300E047E057E00E9444
:1001C800BF005A95E4F74A95CCF75F914F910F918C
:1001D8000895209A219A229A4F936F934BE067E0F3
:1001E8000E94290149E060E00E9429014CE061E099
:1001F8000E9429014FE060E00E9429014AE064E082
:100208000E94290160E041E00E942901439549309C
:10021800D9F76F914F910E94DD0008954F935F9336
:100228006F9340E060E057E0660F0F930E94C900AB
:10023800600F0F915A95C4F743950E9429014830E1
:1002480089F76F915F914F9108952998299A5F9343
:10025800542F0E943601562F0E9436015F9129982B
:10026800299A08954F936F9360E82A98452F46235B
:10027800403019F0289A0C94420128982A9A6695D9
:10028800A1F76F914F910895C0E0D2E06F934F931B
:10029800440F440F440F450FC40F4F916F910895B9
:00000001FF
