:020000020000FC
:0200000004C03A
:0200040089C0B1
:10000800B2C00FEF0DBF08E00EBF0E94E8000E94CB
:10001800CC00C0E0D1E012E01A871B8711E01C87F2
:1000280012E01D8710E01E8712E01F8711E0188379
:1000380010E0198311E01A8315E01B834A815B8164
:1000480001E00E94BA004A855B8501E00E94BA007F
:100058004C855D8501E00E94BA004E855F8501E010
:100068000E94BA004E855F8500E00E94BA001C8598
:100078001E871D851F871A851C871B851D871A8566
:100088002881120F1A871B852981120F1B871A8551
:100098002B851830D9F11F3FC9F12830B9F12F3F0E
:1000A800A9F14A855B8501E00E94BA000E946000C0
:1000B8000E9480000C9436001F932F933F934F9318
:1000C8001A852B853A814B81131789F4241779F403
:1000D8001A8127E1120F17701A831B8127E1120F6B
:1000E80017701B834A815B8101E00E94BA004F911F
:1000F8003F912F911F91089562E35FEF4FEF4A956B
:10010800F1F75A95D9F76A95C1F708950C948A00C2
:10011800F8941F932F933F934F933881498131303F
:1001280031F410E018831FEF19830C94B1003F3F9E
:1001380031F410E0188311E019830C94B1004F3F9B
:1001480031F41FEF188310E019830C94B10011E00B
:10015800188310E019830C94B1004F913F912F91AF
:100168001F9178941895F89478941895CF93DF9305
:100178000E9443010883DF91CF910E940D010895E9
:10018800CF93DF930E9443010881DF91CF910895B7
:10019800F894E89AE99A009169000F600093690061
:1001A80052985398789408950F934F935F9300E073
:1001B80047E057E00E94BA005A95E4F74A95CCF711
:1001C8005F914F910F910895209A219A229A4F9307
:1001D8006F934BE067E00E94240149E060E00E94D1
:1001E80024014CE061E00E9424014FE060E00E949D
:1001F80024014AE064E00E94240160E041E00E949A
:10020800240143954930D9F76F914F910E94D80046
:1002180008954F935F936F9340E060E057E0660F57
:100228000F930E94C400600F0F915A95C4F743952D
:100238000E942401483089F76F915F914F9108958A
:100248002998299A5F93542F0E943101562F0E94B2
:1002580031015F912998299A08954F936F9360E827
:100268002A98452F4623403019F0289A0C943D01CE
:1002780028982A9A6695A1F76F914F910895C0E042
:10028800D2E06F934F93440F440F440F450FC40FB0
:060298004F916F910895E3
:00000001FF
