:020000020000FC
:0200000004C03A
:020004007CC0BE
:10000800A5C00FEF0DBF08E00EBF0E94DB000E94E5
:10001800BF00C0E0D1E012E01A871B8711E01C87FF
:1000280012E01D8710E01E8712E01F8711E0188379
:1000380010E0198311E01A8315E01B834A815B8164
:1000480001E00E94AD004C855D8501E00E94AD0095
:100058004E855F8501E00E94AD004A855B8500E022
:100068000E94AD001A852881120F1A871B852981E5
:10007800120F1B871A852B851830D9F11F3FC9F13C
:100088002830B9F12F3FA9F14A855B8501E00E942C
:10009800AD000E9453000E9473000C9431001F931E
:1000A8002F933F934F931A852B853A814B811317D2
:1000B80089F4241779F41A8127E1120F17701A832B
:1000C8001B8127E1120F17701B834A815B8101E0B6
:1000D8000E94AD004F913F912F911F91089562E3C7
:1000E8005FEF4FEF4A95F1F75A95D9F76A95C1F73F
:1000F80008950C947D00F8941F932F933F934F938A
:1001080038814981313031F410E018831FEF1983A9
:100118000C94A4003F3F31F410E0188311E01983D8
:100128000C94A4004F3F31F41FEF188310E019839B
:100138000C94A40011E0188310E019830C94A40017
:100148004F913F912F911F9178941895F894789436
:100158001895CF93DF930E9436010883DF91CF91E2
:100168000E9400010895CF93DF930E943601088111
:10017800DF91CF910895F894E89AE99A009169007F
:100188000F600093690052985398789408950F93DC
:100198004F935F9300E047E057E00E94AD005A9507
:1001A800E4F74A95CCF75F914F910F910895209A03
:1001B800219A229A4F936F934BE067E00E941701B0
:1001C80049E060E00E9417014CE061E00E941701DD
:1001D8004FE060E00E9417014AE064E00E941701C6
:1001E80060E041E00E94170143954930D9F76F91CB
:1001F8004F910E94CB0008954F935F936F9340E017
:1002080060E057E0660F0F930E94B700600F0F91F0
:100218005A95C4F743950E941701483089F76F91A2
:100228005F914F9108952998299A5F93542F0E94BE
:100238002401562F0E9424015F912998299A089534
:100248004F936F9360E82A98452F4623403019F062
:10025800289A0C94300128982A9A6695A1F76F91EC
:100268004F910895C0E0D2E06F934F93440F440F2D
:0C027800440F450FC40F4F916F91089583
:00000001FF
