:020000020000FC
:0200000004C03A
:020004003FC0FB
:1000080068C00FEF0DBF08E00EBF0E949E000E945F
:100018008200C0E0D1E012E01A871B8711E0188344
:1000280010E019834A855B8500E00E9470001A85FC
:100038002881120F1A871B852981120F1B871A85A1
:100048002B851830C9F01F3FB9F02830A9F02F3F91
:1000580099F04A855B8501E00E9470000E94360095
:100068000C94160062E35FEF4FEF4A95F1F75A954B
:10007800D9F76A95C1F708950C944000F8941F9336
:100088002F933F934F9338814981313031F410E0F9
:1000980018831FEF19830C9467003F3F31F410E079
:1000A800188311E019830C9467004F3F31F41FEF58
:1000B800188310E019830C94670011E0188310E08E
:1000C80019830C9467004F913F912F911F91789459
:1000D8001895F89478941895CF93DF930E94F900B7
:1000E8000883DF91CF910E94C3000895CF93DF93D7
:1000F8000E94F9000881DF91CF910895F894E89A59
:10010800E99A009169000F6000936900529853982A
:10011800789408950F934F935F9300E047E057E07A
:100128000E9470005A95E4F74A95CCF75F914F9179
:100138000F910895209A219A229A4F936F934BE03A
:1001480067E00E94DA0049E060E00E94DA004CE0D3
:1001580061E00E94DA004FE060E00E94DA004AE0C5
:1001680064E00E94DA0060E041E00E94DA00439512
:100178004930D9F76F914F910E948E0008954F939F
:100188005F936F9340E060E057E0660F0F930E9423
:100198007A00600F0F915A95C4F743950E94DA00D0
:1001A800483089F76F915F914F9108952998299A5E
:1001B8005F93542F0E94E700562F0E94E7005F913B
:1001C8002998299A08954F936F9360E82A98452FA4
:1001D8004623403019F0289A0C94F30028982A9A5C
:1001E8006695A1F76F914F910895C0E0D2E06F93A3
:1001F8004F93440F440F440F450FC40F4F916F9115
:02020800089557
:00000001FF
