:020000020000FC
:0200000004C03A
:020004006AC0D0
:1000080093C00FEF0DBF08E00EBF0E94C9000E9409
:10001800AD00C0E0D1E012E01A871B8711E0188319
:1000280010E0198311E01A8315E01B834A815B8174
:1000380001E00E949B004A855B8500E00E949B00CE
:100048001A852881120F1A871B852981120F1B8791
:100058001A852B851830D9F11F3FC9F12830B9F11D
:100068002F3FA9F14A855B8501E00E949B000E9411
:1000780041000E9461000C941F001F932F933F932F
:100088004F931A852B853A814B81131789F42417CE
:1000980079F41A8127E1120F17701A831B8127E15F
:1000A800120F17701B834A815B8101E00E949B003D
:1000B8004F913F912F911F91089562E35FEF4FEFAA
:1000C8004A95F1F75A95D9F76A95C1F708950C94AE
:1000D8006B00F8941F932F933F934F933881498176
:1000E800313031F410E018831FEF19830C9492001B
:1000F8003F3F31F410E0188311E019830C9492000B
:100108004F3F31F41FEF188310E019830C949200CD
:1001180011E0188310E019830C9492004F913F91DD
:100128002F911F9178941895F89478941895CF93F7
:10013800DF930E9424010883DF91CF910E94EE0093
:100148000895CF93DF930E9424010881DF91CF9116
:100158000895F894E89AE99A009169000F6000936D
:10016800690052985398789408950F934F935F932A
:1001780000E047E057E00E949B005A95E4F74A9553
:10018800CCF75F914F910F910895209A219A229A66
:100198004F936F934BE067E00E94050149E060E0F0
:1001A8000E9405014CE061E00E9405014FE060E01B
:1001B8000E9405014AE064E00E94050160E041E018
:1001C8000E94050143954930D9F76F914F910E94DC
:1001D800B90008954F935F936F9340E060E057E054
:1001E800660F0F930E94A500600F0F915A95C4F7F0
:1001F80043950E940501483089F76F915F914F91AF
:1002080008952998299A5F93542F0E941201562F16
:100218000E9412015F912998299A08954F936F932C
:1002280060E82A98452F4623403019F0289A0C9404
:100238001E0128982A9A6695A1F76F914F91089503
:10024800C0E0D2E06F934F93440F440F440F450F23
:08025800C40F4F916F9108954E
:00000001FF
